:100000000C945D000C9485000C9485000C94850084
:100010000C9485000C9485000C9485000C9485004C
:100020000C9485000C9485000C9485000C9485003C
:100030000C9485000C9485000C9485000C9485002C
:100040000C9494010C9485000C945F040C9491041E
:100050000C9485000C9485000C9485000C9485000C
:100060000C9485000C94850000000008000201003B
:100070000003040700000000000000000102040863
:100080001020408001020408102001020408102002
:10009000040404040404040402020202020203032E
:1000A0000303030300000000250028002B000000CC
:1000B0000000240027002A00C10411241FBECFEF36
:1000C000D8E0DEBFCDBF11E0A0E0B1E0E4ECFBE0A2
:1000D00002C005900D92AC37B107D9F722E0ACE72A
:1000E000B1E001C01D92A935B207E1F710E0CAEBFB
:1000F000D0E004C02297FE010E94DC05C83BD10776
:10010000C9F70E9405050C94E0050C94000040ED31
:1001100057E060E070E08CE791E00E94FB0020E097
:1001200032EC41E050E06CEB71E08CE791E00E9432
:100130000E018CE791E00E94F80062E071E080918E
:10014000AD019091AE010E9452056AE070E080E03E
:1001500090E00E940D0241E060E08CE791E00E9497
:10016000790161E0809100010C94AB02CF93DF93A1
:10017000C0E0D1E061E088810E94E40268EE73E0B3
:1001800080E090E00E940D0260E088810E94E4021D
:1001900068EE73E080E090E0DF91CF910C940D0267
:1001A0000F931F93CF93DF93EC01662359F00E94C6
:1001B000DE0169837A838B839C83DF91CF911F91CA
:1001C0000F9108950E94DE0109811A812B813C81E3
:1001D000601B710B820B930B6132710581059105D8
:1001E00030F763E070E080E090E00E940D02EACF1B
:1001F00060E00C94D000FC0113AA14AA15AA16AA58
:100200001182128213821482411551056105710514
:1002100021F0CB01BA010C940D020895FB01BA0143
:10022000A901DC01D296FC93EE93D19726E0CF0191
:100230000C94FD031F93CF93DF93EC01162F64E121
:1002400071E089A99AA90E9452054AE050E0612F05
:1002500089A99AA90E94B0056BE171E089A99AA9C0
:100260000E94520562E370E080E090E0DF91CF9160
:100270001F910C940D021F93CF93DF93EC01162F67
:100280008D81882389F189A99AA9DC01ED91FC91DE
:100290000480F581E02D0995892BA9F307C0263745
:1002A000310519F12835310509F41D8289A99AA96A
:1002B000DC01ED91FC910480F581E02D0995181683
:1002C000190694F489A99AA9DC01ED91FC910680A4
:1002D000F781E02D09959C01332723363105F9F686
:1002E000612FCE010E941A0183E6DF91CF911F9109
:1002F00008950F931F93CF93DF931F92CDB7DEB76F
:100300008C01662349F081E0F801858360E0C80133
:1003100049830E943B014981F80145830F90DF9199
:10032000CF911F910F9108951F920F920FB60F92C8
:1003300011242F933F938F939F93AF93BF938091FB
:10034000B4019091B501A091B601B091B70130917F
:10035000B30123E0230F2D3720F40196A11DB11D19
:1003600005C026E8230F0296A11DB11D2093B301FD
:100370008093B4019093B501A093B601B093B701F7
:100380008091B8019091B901A091BA01B091BB01DF
:100390000196A11DB11D8093B8019093B901A0935E
:1003A000BA01B093BB01BF91AF919F918F913F91E3
:1003B0002F910F900FBE0F901F9018952FB7F894A4
:1003C0006091B4017091B5018091B6019091B7012F
:1003D0002FBF08953FB7F8948091B8019091B9016B
:1003E000A091BA01B091BB0126B5A89B05C02F3FD3
:1003F00019F00196A11DB11D3FBF6627782F892FE7
:100400009A2F620F711D811D911D42E0660F771FAB
:10041000881F991F4A95D1F708958F929F92AF92A6
:10042000BF92CF92DF92EF92FF926B017C010E940C
:10043000EA014B015C01C114D104E104F104F1F0C3
:100440000E94B7050E94EA01681979098A099B0987
:10045000683E73408105910570F321E0C21AD1080E
:10046000E108F10888EE880E83E0981EA11CB11CFB
:10047000C114D104E104F10429F7DDCFFF90EF901E
:10048000DF90CF90BF90AF909F908F900895789419
:1004900084B5826084BD84B5816084BD85B5826089
:1004A00085BD85B5816085BDEEE6F0E08081816027
:1004B0008083E1E8F0E01082808182608083808127
:1004C00081608083E0E8F0E0808181608083E1EBFF
:1004D000F0E0808184608083E0EBF0E080818160E7
:1004E0008083EAE7F0E0808184608083808182609D
:1004F0008083808181608083808180688083109286
:10050000C1000895833081F028F4813099F0823061
:10051000A1F008958730A9F08830B9F08430D1F483
:10052000809180008F7D03C0809180008F778093C1
:100530008000089584B58F7702C084B58F7D84BD17
:1005400008958091B0008F7703C08091B0008F7DB7
:100550008093B0000895CF93DF9390E0FC01E458BE
:10056000FF4F2491FC01E057FF4F8491882349F10C
:1005700090E0880F991FFC01E255FF4FA591B491BF
:100580008C559F4FFC01C591D4919FB7611108C054
:10059000F8948C91209582238C93888182230AC0C1
:1005A000623051F4F8948C91322F309583238C93E0
:1005B0008881822B888304C0F8948C91822B8C9341
:1005C0009FBFDF91CF9108950F931F93CF93DF9338
:1005D0001F92CDB7DEB7282F30E0F901E859FF4F61
:1005E0008491F901E458FF4F1491F901E057FF4F4E
:1005F00004910023C9F0882321F069830E948202BC
:100600006981E02FF0E0EE0FFF1FEC55FF4FA59141
:10061000B4919FB7F8948C91611103C01095812318
:1006200001C0812B8C939FBF0F90DF91CF911F91C1
:100630000F910895FC01818D228D90E0805C9F4F89
:10064000821B91098F7399270895FC01918D828DEA
:10065000981731F0828DE80FF11D858D90E0089597
:100660008FEF9FEF0895FC01918D828D981761F0B7
:10067000828DDF01A80FB11D5D968C91928D9F5FD9
:100680009F73928F90E008958FEF9FEF089587EB0F
:1006900094E0892B49F080E090E0892B29F00E94BA
:1006A000B70481110C9400000895FC01848DDF01D2
:1006B000A80FB11DA35ABF4F2C91848D90E00196D5
:1006C0008F739927848FA689B7892C93A089B189C4
:1006D0008C9180648C93938D848D981306C00288CE
:1006E000F389E02D80818F7D80830895CF93DF9300
:1006F000EC01888D8823C9F0EA89FB89808185FD1A
:1007000005C0A889B9898C9186FD0FC00FB607FC7A
:10071000F5CF808185FFF2CFA889B9898C9185FFBB
:10072000EDCFCE010E945503E7CFDF91CF91089521
:10073000CF92DF92FF920F931F93CF93DF931F927D
:10074000CDB7DEB76C0181E0D60158968C935897EF
:100750005B969C915B975C968C915C97981307C015
:100760005096ED91FC915197808185FD2EC0F60148
:10077000038D10E00F5F1F4F0F731127F02EF6014E
:10078000848DF81211C00FB607FCF9CFD601509630
:10079000ED91FC915197808185FFF1CFC60169836E
:1007A0000E9455036981EBCF838DE80FF11DE35A59
:1007B000FF4F6083D6015B960C935B975296ED9149
:1007C000FC915397808180620CC0D6015696ED91C2
:1007D000FC91579760835096ED91FC9151978081E1
:1007E0008064808381E090E00F90DF91CF911F9132
:1007F0000F91FF90DF90CF900895BF92CF92DF923C
:10080000EF92FF92CF93DF93EC016A017B01B22E4E
:10081000E889F98982E08083411581EE58076105F6
:100820007105A1F060E079E08DE390E0A701960109
:100830000E94B80521503109410951095695479543
:1008400037952795211580E1380798F0E889F989CF
:10085000108260E874E88EE190E0A70196010E94A2
:10086000B8052150310941095109569547953795E9
:100870002795EC85FD853083EE85FF852083188ED6
:10088000EC89FD89B082EA89FB898081806180835F
:10089000EA89FB89808188608083EA89FB8980817D
:1008A00080688083EA89FB8980818F7D8083DF91E6
:1008B000CF91FF90EF90DF90CF90BF9008951F925F
:1008C0000F920FB60F9211242F938F939F93EF9354
:1008D000FF93E091CC01F091CD018081E091D201B4
:1008E000F091D30182FD12C090818091D5018F5F7C
:1008F0008F732091D601821751F0E091D501F0E07D
:10090000E454FE4F958F8093D50101C08081FF9103
:10091000EF919F918F912F910F900FBE0F901F908D
:1009200018951F920F920FB60F9211242F933F9399
:100930004F935F936F937F938F939F93AF93BF93E7
:10094000EF93FF938CEB91E00E945503FF91EF91A1
:10095000BF91AF919F918F917F916F915F914F91D7
:100960003F912F910F900FBE0F901F9018958CEB19
:1009700091E00E941A0321E0892B09F420E0822FE4
:1009800008951092BF011092BE0188EE93E0A0E09E
:10099000B0E08093C0019093C101A093C201B093D5
:1009A000C30180E791E09093BD018093BC0185EC89
:1009B00090E09093C9018093C80184EC90E09093FB
:1009C000CB018093CA0180EC90E09093CD0180939D
:1009D000CC0181EC90E09093CF018093CE0182EC2A
:1009E00090E09093D1018093D00186EC90E09093B9
:1009F000D3018093D2011092D5011092D6011092AA
:100A0000D7011092D801089508950E9447020E94CC
:100A100004050E948700C7E4D3E00E94B600209737
:100A2000E1F30E944703F9CFCF92DF92EF92FF925A
:100A30000F931F93CF93DF937C016A01EB0100E0DA
:100A400010E00C151D0571F06991D701ED91FC9135
:100A50000190F081E02DC7010995892B19F00F5FF6
:100A60001F4FEFCFC801DF91CF911F910F91FF90E2
:100A7000EF90DF90CF9008956115710581F0DB0153
:100A80000D900020E9F7AD0141505109461B570B6D
:100A9000DC01ED91FC910280F381E02D099480E06E
:100AA00090E008950C943C058F929F92AF92BF9274
:100AB000DF92EF92FF920F931F93CF93DF93CDB707
:100AC000DEB7A1970FB6F894DEBF0FBECDBF7C0195
:100AD000F42FD52ECB0119A2223008F42AE08E0182
:100AE0000F5D1F4F822E912CA12CB12C6F2F7D2DCD
:100AF000A50194010E94B805F22FD32ECA0101501E
:100B000011096A3014F4E0E301C0E7E3E60FD8010D
:100B1000EC93232B242B252B49F7B801C7010E9406
:100B20003C05A1960FB6F894DEBF0FBECDBFDF9196
:100B3000CF911F910F91FF90EF90DF90BF90AF90FA
:100B40009F908F9008952115310541F4DC01ED91BE
:100B5000FC910190F081E02D642F09940C945405D0
:100B60009A01462F50E060E070E00C94A3050895D0
:100B7000A1E21A2EAA1BBB1BFD010DC0AA1FBB1FA1
:100B8000EE1FFF1FA217B307E407F50720F0A21B13
:100B9000B30BE40BF50B661F771F881F991F1A9480
:100BA00069F760957095809590959B01AC01BD01AA
:100BB000CF010895EE0FFF1F0590F491E02D0994E9
:040BC000F894FFCFD7
:100BC4000D00564D4450565F317C315F564D4450B4
:100BD400560D0A00564D4450435F005F564D445035
:100BE400430D0A004572726F723A20417474656D48
:100BF400707420746F207365742061207265616461
:100C04002D6F6E6C79207661726961626C65206FFC
:100C14007220646174612074797065206E6F742031
:100C2400737570706F727465640D0A0000000000C3
:0C0C3400980314051A033303250376030C
:00000001FF
